:020000040800F2
:1000000000800220594D0008F9470008FB4700080E
:10001000FD470008FF4700080148000800000000F5
:10002000000000000000000000000000613F000828
:100030000348000800000000014000086540000877
:10004000A94D0008A94D0008A94D0008A94D0008B8
:10005000A94D0008A94D0008A94D0008A94D0008A8
:10006000A94D0008A94D0008A94D0008A94D000898
:10007000A94D0008A94D0008A94D0008A94D000888
:10008000A94D0008A94D0008A94D0008A94D000878
:10009000A94D0008A94D0008A94D0008A94D000868
:1000A000A94D000805480008A94D0008A94D000801
:1000B000A94D0008A94D000800000000A94D000846
:1000C000A94D0008A94D0008A94D0008A94D000838
:1000D000A94D0008A94D0008A94D0008A94D000828
:1000E000A94D0008A94D0008000000000000000014
:1000F0000000000000000000000000000000000000
:1001000000000000A94D000800000000A94D0008F3
:10011000A94D000800000000A94D000800000000E3
:10012000A94D0008A94D0008A94D0008A94D0008D7
:10013000A94D0008A94D0008A94D000800000000C5
:10014000A94D0008A94D0008A94D0008A94D0008B7
:10015000A94D0008A94D0008A94D0008A94D0008A7
:10016000A94D0008A94D0008A94D00080000000095
:1001700000000000A94D0008000000000000000081
:10018000A94D0008A94D0008A94D0008A94D000877
:08019000A94D00080000000069
:1001A00010B5054C237833B9044B13B10448AFF3B1
:1001B00000800123237010BD180000200000000003
:1001C0001C4E000808B5034B1BB103490348AFF3AD
:1001D000008008BD000000001C0000201C4E00082C
:1001E00053B94AB9002908BF00281CBF4FF0FF319E
:1001F0004FF0FF3000F072B9ADF1080C6DE904CE9C
:1002000000F006F8DDF804E0DDE9022304B07047F1
:100210002DE9F047089E04468846002B4BD18A42C0
:10022000154667D9B2FA82F24AB1C2F1200701FA43
:1002300002F320FA07F7954047EA030894404FEA93
:10024000154E230CB8FBFEF71FFA85FC0EFB178832
:1002500043EA084307FB0CF1994209D9EB1807F16F
:10026000FF3080F01B81994240F21881023F2B44FD
:100270005B1AA4B2B3FBFEF00EFB103344EA034456
:1002800000FB0CFCA44509D92C1900F1FF3380F0C8
:100290000781A44540F2048102382C4440EA07401B
:1002A000A4EB0C0400271EB1D4400023C6E9004390
:1002B0003946BDE8F0878B4209D9002E00F0EB806B
:1002C0000027C6E9000138463946BDE8F087B3FA91
:1002D00083F7002F47D18B4202D3824200F2FA808B
:1002E000841A61EB030301209846002EE0D0C6E992
:1002F0000048DDE702B9FFDEB2FA82F2002A40F0E0
:100300008F80491B4FEA154E1FFA85F80127B1FB74
:10031000FEFC230C0EFB1C1143EA014308FB0CF10D
:10032000994207D9EB180CF1FF3002D2994200F242
:10033000CD808446591AA3B2B1FBFEF00EFB101417
:1003400043EA044408FB00F8A04507D92C1900F142
:10035000FF3302D2A04500F2B6801846A4EB080491
:1003600040EA0C409FE7C7F1200CBB4022FA0CFE8C
:100370004EEA030E01FA07F420FA0CF521FA0CF309
:100380004FEA1E482543B3FBF8F92C0C08FB193340
:100390001FFA8EFA44EA034309FB0AF49C4202FA6C
:1003A00007F200FA07F10BD91EEB030309F1FF3046
:1003B00080F087809C4240F28480A9F10209734456
:1003C0001B1BADB2B3FBF8F008FB103345EA034446
:1003D00000FB0AFAA24508D91EEB040400F1FF3322
:1003E0006BD2A24569D90238744440EA0940A0FBA7
:1003F0000289A4EB0A044C45C2464B4654D351D063
:10040000002E69D0B1EB0A0564EB030404FA0CFC7E
:10041000FD40FC404CEA0505C6E90054002747E7CB
:10042000C2F1200320FA03F7954001FA02F021FA05
:1004300003F34FEA154E3843010CB3FBFEF71FFAE6
:1004400085F80EFB173341EA034107FB08F38B42A3
:1004500004FA02F407D9691807F1FF3C2FD28B4246
:100460002DD9023F2944CB1A81B2B3FBFEF00EFB1B
:10047000103341EA034100FB08F38B4207D96918A6
:1004800000F1FF3C17D28B4215D902382944C91A12
:1004900040EA07473BE73746304609E70746E7E6C5
:1004A0001846FBE64145ABD2B8EB020A69EB0E02F7
:1004B00001381346A4E76046E9E7184695E7674622
:1004C000D1E781467CE702382C4447E7ACF1020CC7
:1004D0002B442FE7384608E73746E9E6704700BF68
:1004E00010B5094A136843F480731360032000F0C9
:1004F0001FF8002004F044F910B10124204610BD7B
:10050000044604F01DF9F9E700200240034A13688D
:10051000034909680B441360704700BFF8180020B6
:1005200000000020014B1868704700BFF818002039
:10053000074AD36823F4E0631B041B0C000200F499
:10054000E060184340F0BF6040F40030D060704776
:1005500000ED00E030B4174BDB68C3F30223C3F1B6
:100560000704042C28BF04241D1D062D18D9033BA5
:100570004FF0FF3505FA04F421EA0401994005FA29
:1005800003F322EA0303194300280BDB0901C9B274
:1005900000F1604000F5614080F8001330BC704706
:1005A0000023E5E700F00F000901C9B2024B19541E
:1005B000F4E700BF00ED00E014ED00E0002807DBE9
:1005C00000F01F02400901239340024A42F8203004
:1005D000704700BF00E100E0F0B482B0002336E0D5
:1005E000042400E00024B4403C4302355B4E46F84E
:1005F00025405B4C2568D44304EA05064F6817F490
:10060000803F01D042EA0506554D2E606D6804EA30
:1006100005064F6817F4003F01D042EA0506504D29
:100620006E60AD6804EA05064F6817F4801F01D0BC
:1006300042EA05064A4DAE60ED682C404E6816F45D
:10064000001F01D042EA0504454AD46001330A681C
:1006500032FA03F47ED001249C402240F6D04D684B
:10066000022D01D0122D10D1DE08083650F826C018
:1006700003F00705AF000F25BD402CEA050C0D69FE
:10068000BD4045EA0C0540F8265006685F0003258A
:10069000BD40ED4305EA060C4E6806F00306BE4079
:1006A00046EA0C0606604E6806F1FF3CBCF1010FFD
:1006B00003D9112E01D0122E10D1866805EA060C3E
:1006C000CE68BE4046EA0C068660466826EA040408
:1006D0004E68C6F300169E4026434660C468254017
:1006E0008C68BC402C43C4604C6814F0805FADD073
:1006F0001C4C256E45F001052566246E04F00104AE
:100700000194019C9D08AE1C144C54F8267003F013
:100710000304A6000F24B44027EA0407B0F1904F69
:100720003FF460AF104CA0420ED004F58064A042AC
:100730000CD004F58064A0420AD004F58064A04285
:100740003FF44EAF07244EE701244CE702244AE76A
:10075000032448E702B0F0BC704700BF000001402E
:100760000004014000100240000400480AB9816200
:100770007047816170470000024B186800F4C06048
:10078000704700BF00700040B0F5007F0FD01F4BD6
:100790001B6803F4C063B3F5806F34D01B4A136841
:1007A00023F4C06343F48063136000207047174B49
:1007B0001B6803F4C063B3F5007F22D0134A1368AB
:1007C00023F4C06343F400731360114B1A6832239F
:1007D00003FB02F30F4AA2FB03239B0C013300E04F
:1007E000013B0A4A526912F4806F01D0002BF7D105
:1007F000064B5B6913F4806F01D100207047032022
:100800007047002070470020704700BF0070004014
:100810001400002083DE1B4330B583B00546204B17
:100820009B6D13F0805F0BD0FFF7A6FFB0F5007F44
:1008300017D0802D1FD82DD0702D2DD000211BE07A
:10084000174CA36D43F08053A365A36D03F0805351
:100850000193019BFFF790FFA36D23F08053A365E5
:10086000E4E7802D03D9A02D03D9022104E0002163
:1008700002E0012100E003210A4A136823F0070384
:100880000B431360136803F007038B4206D001206B
:1008900003B030BD0221EFE70121EDE70020F7E7CB
:1008A0000010024000200240284A9368D26802F0FB
:1008B000030213F00C030AD00C2B06D0042B1FD01C
:1008C000082B20D00020024610E0012AF6D11F4A52
:1008D000126812F0080F0CD11C4AD2F89420C2F30F
:1008E00003221B4951F8222043B100200C2B0DD0CC
:1008F0007047164A1268C2F30312F2E71046F5E792
:1009000014480022F2E714480022EFE70F4BDB689F
:1009100003F00303022B15D0032B15D00B4BD86823
:10092000C0F302100130D968C1F3062102FB01F2C5
:10093000B2FBF0F2D868C0F3416001304000B2FB76
:10094000F0F0D5E7034AE9E7034AE7E70010024081
:10095000384E00080024F40000127A00002800F04D
:100960000883F0B583B00446AD4B9D6805F00C05D7
:10097000DE6806F00306036813F0100F5ED0E5B1E1
:100980000C2D18D0A369002B00F0B880A44A13687E
:1009900043F001031360FFF7C5FD0746A04B1B683A
:1009A00013F0020F40F09780FFF7BCFDC01B022838
:1009B000F4D90323E9E2012EE4D1994B1B6813F02B
:1009C000020F03D0A369002B00F0D682206A944B5B
:1009D0001B6813F0080F5ED0914B1B6803F0F00307
:1009E00098425FD9FFF718FF002840F0C7828C4B70
:1009F0001A6842F008021A601A6822F0F002216AAE
:100A00000A431A605A6822F47F42E16942EA0122ED
:100A10005A60FFF749FF824B9B68C3F30313814A77
:100A2000D35C03F01F03D8407F4B18607F4B1868DE
:100A300003F0A6FE0346002840F0A782236813F0C7
:100A4000010F7AD0082D6FD00C2D6BD06368B3F5F1
:100A5000803F00F09180B3F5A02F00F09380704BA1
:100A60001A6822F480321A601A6822F480221A600E
:100A70006368002B00F09380FFF754FD0746684B36
:100A80001B6813F4003F58D1FFF74CFDC01B6428CE
:100A9000F5D9032379E2624BD3F894301B0903F0B4
:100AA000F0039DE75E4B1A6842F008021A601A686C
:100AB00022F0F002216A0A431A605A6822F47F4247
:100AC000E16942EA01225A60206AFFF7A5FE002888
:100AD0009FD0012359E2524B1A6842F008021A6073
:100AE0001A6822F0F002216A0A431A605A6822F456
:100AF0007F42E16942EA01225A609FE7484A13684F
:100B000023F001031360FFF70DFD0746444B1B68FC
:100B100013F0020F92D0FFF705FDC01B0228F5D994
:100B2000032332E2032E91D13D4B1B6813F4003FA7
:100B300003D06368002B00F02382236813F0020FB8
:100B40004FD0042D3CD00C2D38D0E368002B78D04A
:100B5000334A136843F480731360FFF7E3FC0646DF
:100B60002F4B1B6813F4806F62D1FFF7DBFC801BF7
:100B70000228F5D9032308E2294A136843F4803395
:100B8000136075E703F18043A3F53C331A6842F420
:100B900080221A601A6842F480321A6068E7FFF710
:100BA000C1FC07461E4B1B6813F4003FC5D0FFF77E
:100BB000B9FCC01B6428F5D90323E6E1022EC4D199
:100BC000174B1B6813F4806F03D0E368002B00F011
:100BD000D981134A536823F0FE43216943EA016334
:100BE0005360236813F0080F56D06369002B3CD084
:100BF0000B4AD2F8943043F00103C2F89430FFF767
:100C000091FC0646064BD3F8943013F0020F43D103
:100C1000FFF788FC801B0228F4D90323B5E100BF4D
:100C200000100240684E000814000020040000205C
:100C3000B64A536823F0FE43216943EA01635360D7
:100C4000CFE7B24A136823F480731360FFF76AFC9E
:100C50000646AE4B1B6813F4806FC2D0FFF762FCF0
:100C6000801B0228F5D903238FE1A84AD2F89430DB
:100C700023F00103C2F89430FFF754FC0646A34B5F
:100C8000D3F8943013F0020F06D0FFF74BFC801B13
:100C90000228F4D9032378E1236813F0040F7AD0F3
:100CA0009A4B9B6D13F0805F0BD1984B9A6D42F07D
:100CB00080529A659B6D03F080530193019B01263E
:100CC00000E00026924B1B6813F4807F26D0A368B7
:100CD000012B37D0052B3DD08C4BD3F8902022F040
:100CE0000102C3F89020D3F8902022F00402C3F848
:100CF0009020A368002B3BD0FFF714FC0746834BE2
:100D0000D3F8903013F0020F44D1FFF70BFCC01B57
:100D100041F288339842F2D9032336E17C4A1368C2
:100D200043F480731360FFF7FDFB0746784B1B68A5
:100D300013F4807FCBD1FFF7F5FBC01B0228F5D958
:100D4000032322E1714AD2F8903043F00103C2F844
:100D50009030CEE76D4BD3F8902042F00402C3F8F8
:100D60009020D3F8902042F00102C3F89020C0E711
:100D7000FFF7D8FB0746654BD3F8903013F0020F0E
:100D800008D0FFF7CFFBC01B41F288339842F2D95D
:100D90000323FAE0E6B9236813F0200F35D0636A25
:100DA000E3B15A4AD2F8983043F00103C2F89830C0
:100DB000FFF7B8FB0646554BD3F8983013F0020FF7
:100DC00023D1FFF7AFFB801B0228F4D90323DCE01B
:100DD0004E4A936D23F080539365DCE74B4AD2F87B
:100DE000983023F00103C2F89830FFF79BFB0646CA
:100DF000464BD3F8983013F0020F06D0FFF792FB62
:100E0000801B0228F4D90323BFE0A36A002B00F063
:100E1000BB800C2D6FD0022B23D03C4B1A6822F0E4
:100E200080721A601B6813F0006F04D1374AD368D0
:100E300023F00303D360354AD36823F0887323F487
:100E40008033D360FFF76EFB0446304B1B6813F012
:100E5000007F4ED0FFF766FB001B0228F5D9032365
:100E600093E02A4A136823F080731360FFF75AFB5C
:100E70000546264B1B6813F0007F06D0FFF752FB98
:100E8000401B0228F5D903237FE0204AD36821497B
:100E90001940E36A206B013843EA0013606B43EAB0
:100EA0000023E06B4008013843EA4053206C4008BF
:100EB000013843EA4063A06B43EAC0630B43D3604D
:100EC000136843F080731360D36843F08073D3607A
:100ED000FFF728FB04460D4B1B6813F0007F06D17B
:100EE000FFF720FB001B0228F5D903234DE0002368
:100EF0004BE0002349E0012B4AD0044BDB6803F0B0
:100F00000301E26A914207D001233EE00010024053
:100F1000007000408C809D0103F07002216B01394C
:100F2000B2EB011F01D001232FE003F4FE42616BFD
:100F3000B2EB012F01D0012327E003F07842A16B2F
:100F4000B2EBC16F01D001231FE003F4C001E26BDB
:100F50005208013AB1EB425F01D0012315E003F0E2
:100F6000C063226C5208013AB3EB426F12D00123E6
:100F70000BE0012318467047012306E0012304E03B
:100F8000012302E0012300E00023184603B0F0BD76
:100F90000123FAE70023F8E7002800F09B8070B5F2
:100FA00004464E4B1B6803F007038B420CD24B4A9E
:100FB000136823F007030B431360136803F0070360
:100FC0008B4201D0012070BD0D46236813F0010F44
:100FD00039D06368032B09D0022B26D063BB404A6B
:100FE000126812F0020F06D10120ECE73C4A1268A9
:100FF00012F0007F70D03A498A6822F0030213434E
:101000008B60FFF78FFA0646354B9B6803F00C03A5
:101010006268B3EB820F16D0FFF784FA801B41F2AF
:1010200088339842F0D90320CDE72D4A126812F494
:10103000003FE0D10120C6E7294A126812F4806F10
:10104000D9D10120BFE7236813F0020F06D0244A4C
:10105000936823F0F003A1680B4393601F4B1B6858
:1010600003F00703AB420CD91C4A136823F00703B3
:101070002B431360136803F00703AB4201D0012038
:10108000A1E7236813F0040F06D0154A936823F4F0
:10109000E063E1680B439360236813F0080F07D007
:1010A0000F4A936823F46053216943EAC1039360B4
:1010B000FFF7FAFB0A4B9B68C3F30313094AD35C9F
:1010C00003F01F03D840084B1860084B186803F062
:1010D00057FB78E701207047012074E700200240A9
:1010E00000100240684E0008140000200400002098
:1010F000014B1868704700BF1400002008B5FFF7C7
:10110000F7FF054B9B68C3F30223044AD35C03F04B
:101110001F03D84008BD00BF00100240784E0008F1
:1011200008B5FFF7E5FF054B9B68C3F3C223044AEC
:10113000D35C03F01F03D84008BD00BF001002407D
:10114000784E00080F2303600B4B9A6802F00302ED
:1011500042609A6802F0F00282609A6802F4E062EB
:10116000C2609B68DB0803F4E0630361034B1B6808
:1011700003F007030B60704700100240002002409C
:10118000F8B5594BDB6813F0030F18D0564BDB68EA
:1011900003F003030268934202D001252846F8BDFC
:1011A000002A00F09F80504BDB68C3F30213013329
:1011B0004268934201D00125F0E700251AE0036858
:1011C000022B58D0032B5DD0012B01D001250FE05D
:1011D000454A126812F0020F60D0434DEA6822F0CF
:1011E00073024468013C43EA04131343EB60002597
:1011F000002DD3D10F4604463B4A136823F0806389
:101200001360FFF78FF90646374B1B6813F0006F2A
:1012100005D0FFF787F9801B0228F5D90325002D9B
:10122000BCD1002F3CD130490B6923F0784323F423
:10123000FE43A068E268D20642EA002213430B6133
:10124000294A136843F080631360FFF76BF9064681
:10125000254B1B6813F0006F05D1FFF763F9801B66
:101260000228F5D90325002D98D11F4A1369A169D9
:101270000B43136192E71C4A126812F4806FACD1E1
:101280000125B5E7184A126812F4003FA5D1164AA5
:10129000126812F4802FA0D10125A9E70125A7E744
:1012A000012F0FD01048026922F0C06222F4FE42E2
:1012B000A16863695B08013B5B0643EA01231343B2
:1012C0000361BDE70848026922F4C00222F4FE422D
:1012D000A16823695B08013B5B0543EA01231343D3
:1012E0000361ADE7012559E7001002402DE9F04107
:1012F00082B00446036813F4006F26D0C36CB3F5C4
:10130000000F06D0B3F5400F1DD09BB10126374624
:101310001DE0BE4AD36843F48033D3600027BB4A44
:10132000D2F8883023F44003E16C0B43C2F88830D4
:1013300000260CE000210430FFF722FF07460028BA
:10134000EDD0064603E00027E9E70026374623688C
:1013500013F4003F6BD0AD4B9B6D13F0805F4CD10D
:10136000AA4B9A6D42F080529A659B6D03F08053B0
:101370000193019B4FF00108A54A136843F4807361
:101380001360FFF7CFF80546A14B1B6813F4807F6D
:1013900005D1FFF7C7F8401B0228F5D90327002F16
:1013A00040D19A4BD3F8903013F4407315D0626E4D
:1013B0009A4212D0954AD2F8903023F44073D2F872
:1013C000901041F48031C2F89010D2F8901021F4BE
:1013D0008031C2F89010C2F8903013F0010F0FD195
:1013E000002F40F01181894AD2F8903023F44073E5
:1013F000616E0B43C2F8903015E04FF00008BBE778
:10140000FFF790F80546814BD3F8903013F0020FA8
:10141000E6D1FFF787F8401B41F288339842F2D9B2
:101420000327DDE73E46B8F1000F40F0F380236864
:1014300013F0010F08D0754AD2F8883023F0030367
:10144000216A0B43C2F88830236813F0020F08D0DA
:101450006E4AD2F8883023F00C03616A0B43C2F85D
:101460008830236813F0040F08D0684AD2F8883017
:1014700023F03003A16A0B43C2F88830236813F0CD
:10148000080F08D0614AD2F8883023F0C003E16A1F
:101490000B43C2F88830236813F0200F08D05B4A52
:1014A000D2F8883023F44063216B0B43C2F88830B4
:1014B000236813F4007F08D0544AD2F8883023F40C
:1014C0004023616C0B43C2F88830236813F4806FAB
:1014D00008D04E4AD2F8883023F44013A16C0B4355
:1014E000C2F88830236813F0400F08D0474AD2F87A
:1014F000883023F44053616B0B43C2F88830236873
:1015000013F0800F08D0414AD2F8883023F44043CA
:10151000A16B0B43C2F88830236813F4807F08D096
:101520003A4AD2F8883023F44033E16B0B43C2F8D7
:101530008830236813F4801F08D0344AD2F89C30D6
:1015400023F00303216C0B43C2F89C30236813F48F
:10155000005F0FD02D4AD2F8883023F04063216D10
:101560000B43C2F88830236DB3F1006F58D0B3F14C
:10157000806F5AD0236813F4002F0FD0234AD2F87B
:10158000883023F04063616D0B43C2F88830636D8F
:10159000B3F1006F51D0B3F1806F53D0236813F4CF
:1015A000802F0FD0194AD2F8883023F04063A16D04
:1015B0000B43C2F88830A36DB3F1006F4AD0B3F18A
:1015C000806F4CD0236813F4804F0CD00F4AD2F8B0
:1015D000883023F04053E16D0B43C2F88830E36D4F
:1015E000B3F1805F43D0236813F4803F08D0074AEB
:1015F000D2F8883023F00043216E0B43C2F88830C4
:10160000304602B0BDE8F0813E460CE700100240D3
:10161000007000401A4A936D23F08053936506E7EB
:10162000D36843F48013D360A4E70121201DFFF7A2
:10163000A7FD00289ED006469CE7D36843F480139C
:10164000D360ABE70121201DFFF79AFD0028A5D04C
:101650000646A3E7D36843F48013D360B2E70121C1
:10166000201DFFF78DFD0028ACD00646AAE7022119
:10167000201DFFF785FD0028B5D00646B3E700BF63
:1016800000100240F8B505460F4616461C462B686A
:101690009B6837EA03030CBF01230023B34237D012
:1016A000B4F1FF3FF3D0FEF73DFF069BC01AA04206
:1016B00001D2002CEBD12A68536823F0E003536079
:1016C0006B68B3F5827F0BD0AB6AB3F5005F14D0C3
:1016D000012385F85D30002385F85C30032018E095
:1016E000AB68B3F5004F02D0B3F5806FECD12A6838
:1016F000136823F040031360E6E72A68136823F4B5
:10170000005313602A68136843F400531360DFE743
:101710000020F8BDF8B507460C4615461E4602E007
:10172000B6F1FF3F0BD13A6893682340AB423BD000
:10173000B4F5C06FF4D1002DF2D1137BF0E7FEF7C2
:10174000F1FE069BC01AB04201D2002EEBD13A68DE
:10175000536823F0E00353607B68B3F5827F0BD0BE
:10176000BB6AB3F5005F14D0012387F85D30002316
:1017700087F85C30032018E0BB68B3F5004F02D057
:10178000B3F5806FECD13A68136823F0400313601F
:10179000E6E73A68136823F4005313603A68136865
:1017A00043F400531360DFE70020F8BD70B582B04A
:1017B00004460D46164600920B4600224FF4C051D7
:1017C000FFF7A8FFB8B900962B46002280212046DB
:1017D000FFF758FFB8B900962B4600224FF4C061BE
:1017E0002046FFF797FF034650B1236E43F02003D6
:1017F0002366032304E0236E43F0200323660323C0
:10180000184602B070BD236E43F020032366032305
:10181000F6E770B582B004460D4616464368B3F548
:10182000827F0FD000962B46002280212046FFF7B2
:1018300029FF034698B96268B2F5827F15D0184631
:1018400002B070BD8368B3F5004F02D0B3F5806F6E
:10185000E8D12268136823F040031360E2E7236EA7
:1018600043F0200323660323E9E7A268B2F5004FA3
:1018700002D0B2F5806FE2D100962B4600224FF4E1
:10188000C0612046FFF746FF03460028D7D0236EED
:1018900043F0200323660323D1E7002853D010B57B
:1018A00004460023836290F85D30002B40D0022371
:1018B00084F85D302268136823F040031360E36806
:1018C000B3F5E06F39D90022B3F5706F04D0B3F5EA
:1018D000E06F01D00021A162216B21B9B3F5E06F67
:1018E0002ED9022323636368A1680B4321690B434C
:1018F00061690B43A16901F400710B43E1690B437A
:10190000216A0B43A06A216803430B60638B03F0D9
:101910000403616A0B43616B0B43E1680B4321686D
:1019200013434B6000202066012384F85D3010BD16
:1019300080F85C3002F0BCFEB9E74FF48052C3E798
:1019400001232363CFE7012070472DE9F04182B0E6
:1019500090F85C40012C00F0E4801E461546884655
:101960000446012380F85C30FEF7DCFD074694F85E
:101970005D20D2B2012A09D00220012384F85D3013
:10198000002384F85C3002B0BDE8F081B8F1000FAC
:1019900000F0B980002D00F0B880032384F85D309A
:1019A00000232366C4F83880A587E5872364A4F85C
:1019B0004430A4F846302365E364A368B3F5004FD0
:1019C0001CD023681A6812F0400F03D11A6842F045
:1019D00040021A60E368B3F5E06F33D963680BB176
:1019E000012D1BD1A26B23681288DA60A36B02332E
:1019F000A363E38F013B9BB2E3870FE02268136888
:101A000043F480431360DCE7FEF78CFDC01BB0425B
:101A100002D3B6F1FF3F7AD1002E7AD0E38F9BB28A
:101A2000002B5BD023689A6812F0020FECD0A26BF7
:101A30001288DA60A36B0233A363E38F013B9BB28E
:101A4000E387EBE763680BB1012D30D1E38F9BB2E5
:101A5000012B0BD9A26B23681288DA60A36B0233C7
:101A6000A363E38F023B9BB2E38720E0A26B236872
:101A700012781A73A36B0133A363E38F013B9BB20C
:101A8000E38714E0A36B1B781373A36B0133A36389
:101A9000E38F013B9BB2E38709E0FEF743FDC01BE8
:101AA000B04202D3B6F1FF3F35D1002E35D0E38FDF
:101AB0009BB29BB12268936813F0020FEDD0E38FC5
:101AC0009BB2012BDED9A36B1B88D360A36B0233BF
:101AD000A363E38F023B9BB2E387E8E73A463146D4
:101AE0002046FFF763FE08B120232366A36833B9BD
:101AF00001932368DA6801929B680193019B236E2E
:101B00006BB9002039E7012037E7012035E70320D2
:101B100033E7032031E703202FE703202DE70120DF
:101B20002BE702202FE72DE9F843DDF8208090F81D
:101B30005C40012C00F05C811D4617460E460446B1
:101B4000012380F85C30FEF7EDFC814694F85D00DF
:101B5000C0B26368012814D0B3F5827F09D0022394
:101B6000012284F85D20002284F85C201846BDE83C
:101B7000F883A368002B40F02D81042801D00223B4
:101B8000EEE7002E00F02881002F00F02781002DC5
:101B900000F0268194F85D30DBB2042B02D00523DF
:101BA00084F85D30002323662764A4F84650A4F827
:101BB0004450A663E587A587E3642365E368B3F52E
:101BC000E06F01D8012D22D92268536823F4805395
:101BD000536023681A6812F0400F03D11A6842F06C
:101BE00040021A60E368B3F5E06F56D963680BB141
:101BF000012D0AD1A26B23681288DA60A36B02332D
:101C0000A363E38F013B9BB2E387012525E02268B4
:101C1000536843F480535360DBE723689A6812F0FB
:101C2000010F10D0B4F8462092B262B1DA68236C8A
:101C30001A80236C02332364B4F84630013B9BB214
:101C4000A4F846300125FEF76DFCA0EB09004045E5
:101C500003D3B8F1FF3F40F0C580E38F9BB22BB9AF
:101C6000B4F846309BB2002B00F0A78023689A6836
:101C700012F0020FD1D0E28F92B2002ACDD0002D07
:101C8000CBD0A26B1288DA60A36B0233A363E38F1D
:101C9000013B9BB2E3870025BFE763680BB1012DD1
:101CA0000ED1E38F9BB2012B0CD9A26B2368128853
:101CB000DA60A36B0233A363E38F023B9BB2E3873B
:101CC000012547E0A26B236812781A73A36B0133D6
:101CD000A363E38F013B9BB2E387F1E7E28F92B20C
:101CE000012A0BD9A26B1288DA60A36B0233A363BB
:101CF000E38F023B9BB2E38700253CE0A26B1278A6
:101D00001A73A36B0133A363E38F013B9BB2E38799
:101D1000002530E02268536843F480535360012566
:101D20000CE0226C1B7B1370236C01332364B4F82A
:101D30004630013B9BB2A4F846300125FEF7F2FB8A
:101D4000A0EB0900404502D3B8F1FF3F4CD1B8F1F8
:101D5000000F4BD0E38F9BB21BB9B4F846309BB257
:101D60005BB323689A6812F0020F04D0E28F92B23C
:101D70000AB1002DB2D123689A6812F0010FDDD0AC
:101D8000B4F8462092B2002AD8D0B4F8462092B2D5
:101D9000012AC6D9DA68236C1A80236C02332364C3
:101DA000B4F84630023B9BB2A4F84630B4F8463053
:101DB0009BB2012BAED90125C0E74A4641462046D9
:101DC000FFF7F4FC034600283FF4CAAE2023236645
:101DD0000123C5E60223C3E60123C1E60123BFE6D2
:101DE0000123BDE60323BBE60323B9E60323B7E6DD
:101DF0000223BBE62DE9F04182B004460F4690462F
:101E00001D464368B3F5827F19D094F85C30012BEE
:101E100000F0B880012384F85C30FEF783FB0646AF
:101E200094F85D30DBB2012B15D00220012384F839
:101E30005D30002384F85C3002B0BDE8F081836837
:101E4000002BE2D1042380F85D30009513460A464A
:101E5000FFF769FEF0E7002F00F08680B8F1000F71
:101E600000F08480042384F85D3000232366276417
:101E7000A4F84480A4F84680A363A387E387E364BF
:101E80002365E368B3F5E06F16D92268536823F43D
:101E900080535360A368B3F5004F13D023681A68CA
:101EA00012F0400F03D11A6842F040021A60E36852
:101EB000B3F5E06F16D935E02268536843F48053D8
:101EC0005360E7E72268136823F480431360E5E773
:101ED000FEF728FB801BA84202D3B5F1FF3F47D194
:101EE000002D47D0B4F846309BB2002B30D0236889
:101EF0009A6812F0010FEBD0226C1B7B1370236CDD
:101F000001332364B4F84630013B9BB2A4F8463059
:101F1000E8E7FEF707FB801BA84202D3B5F1FF3FBD
:101F20002AD15DB3B4F846309BB28BB123689A686E
:101F300012F0010FEDD0DA68236C1A80236C0233A3
:101F40002364B4F84630013B9BB2A4F84630E9E77D
:101F5000324629462046FFF75CFC08B12023236661
:101F6000236E6BB9002061E701205FE701205DE788
:101F700003205BE7032059E7032057E7032055E7D9
:101F8000012053E7022057E7704700000268D3683A
:101F900043F00103D36002689168064B0B40062BA7
:101FA00006D0B3F5803F03D0136843F001031360FC
:101FB0000020704707000100704770477047704766
:101FC00010B5044603681A6912F0020F11D0DA68DE
:101FD00012F0020F0DD06FF002021A610123037795
:101FE00003689B6913F0030F79D0FFF7E6FF002326
:101FF000237723681A6912F0040F12D0DA6812F0FE
:10200000040F0ED06FF004021A61022323772368B5
:102010009B6913F4407F68D02046FFF7CEFF002372
:10202000237723681A6912F0080F12D0DA6812F0C9
:10203000080F0ED06FF008021A610423237723687B
:10204000DB6913F0030F57D02046FFF7B6FF0023DC
:10205000237723681A6912F0100F12D0DA6812F091
:10206000100F0ED06FF010021A6108232377236837
:10207000DB6913F4407F46D02046FFF79EFF002324
:10208000237723681A6912F0010F03D0DA6812F07F
:10209000010F3FD123681A6912F0800F03D0DA686C
:1020A00012F0800F3DD123681A6912F4807F03D0AB
:1020B000DA6812F0800F3BD123681A6912F0400FE2
:1020C00003D0DA6812F0400F39D123681A6912F090
:1020D000200F03D0DA6812F0200F37D110BDFFF7C0
:1020E0006BFF2046FFF76AFF81E72046FFF764FF9A
:1020F0002046FFF763FF92E72046FFF75DFF20468B
:10210000FFF75CFFA3E72046FFF756FF2046FFF7E7
:1021100055FFB4E76FF001021A61204602F096FA0B
:10212000B8E76FF080021A61204600F071F8BAE754
:102130006FF480721A61204600F06BF8BCE76FF014
:1021400040021A612046FFF73AFFBEE76FF0200217
:102150001A61204600F05BF8C0E7000003681E4AE1
:10216000904206D0B0F1804F03D0A2F59432904255
:1021700003D123F070034A681343174A90420ED0EC
:10218000B0F1804F0BD0A2F59432904207D002F507
:102190009E32904203D002F58062904203D123F434
:1021A0004073CA68134323F080034A6913430360F2
:1021B0008B68C3620B688362074B984207D003F5B4
:1021C000A053984203D003F58063984201D10B6974
:1021D0000363012343617047002C0140A8B110B58F
:1021E000044690F83D305BB1022384F83D30211D58
:1021F0002068FFF7B3FF012384F83D30002010BDB5
:1022000080F83C30FFF7C0FEEEE7012070477047D2
:10221000704770472DE9F0480446016883680269F9
:10222000134342691343C269134308689F4A02403B
:1022300013430B602268536823F44053E1680B4357
:102240005360A16922689A4B9A4201D0236A1943CC
:10225000936823F430630B4393602368954A934259
:1022600023D0954A934234D0944A93424AD0944A18
:1022700093425DD08E4A934270D010258C4A93428F
:1022800000F08F80E369B3F5004F00F00581082D61
:1022900000F2A281DFE815F0620178018201A0015D
:1022A0008D01A001A001A001970102F55842D2F8CA
:1022B000882002F00302032A09D8DFE802F00204B2
:1022C00068060125DAE70425D8E70825D6E71025B2
:1022D000D4E702F5E632D2F8882002F00C020C2A8C
:1022E0000ED8DFE802F0070D0D0D090D0D0D560D8E
:1022F0000D0D0B000025C1E70425BFE70825BDE74C
:102300001025BBE702F5E432D2F8882002F0300253
:10231000102A09D005D9202A3DD0302A06D1082517
:10232000ACE71AB90025A9E70425A7E71025A5E71A
:1023300002F5E232D2F8882002F0C002402A09D029
:1023400005D9802A29D0C02A06D1082596E71AB9CE
:10235000002593E7042591E710258FE702F5C832A1
:10236000D2F8882002F44062B2F5806F0BD007D912
:10237000B2F5006F13D0B2F5406F06D108257DE7A6
:102380001AB900257AE7042578E7102576E70225B3
:1023900074E7022572E7022570E702256EE7022541
:1023A0006CE7082D00F21B81DFE815F00C00190125
:1023B00014001901110019011901190109004FF444
:1023C000004008E0FEF79AFE28B90020D7E0FEF7AB
:1023D0006BFAF9E73B48626802EB4203834200F282
:1023E0000081B0EB023F00F2FE80082D51D8DFE8FB
:1023F00005F005502050305050504300FEF77EFE4F
:102400000025070E0602626850082B4616EB000BEB
:1024100047F1000C58466146FDF7E2FE03462846A8
:10242000A3F54071284A914200F2DF802268D36010
:10243000A5E0560800252B46DFF890B04FF0000CC1
:102440001BEB06004CF10001FDF7CAFE03462846CF
:10245000E6E7FEF729FA0025070E06026268500833
:102460002B4616EB000B47F1000C58466146FDF772
:10247000B7FE03462846D3E75008002700252B4621
:1024800010F5000047F10001FDF7AAFE03462846BB
:10249000C6E701200023C3E7082D5CD8DFE805F07C
:1024A00018313C5B475B5B5B520000BFF369FFEF99
:1024B00000800040003801400044004000480040D7
:1024C000004C00400024F400FFFC0F00000024F446
:1024D000FEF714FE6268530803EB4003B3FBF2F30C
:1024E0009BB20020A3F110014FF6EF7291427ED80B
:1024F0009AB222F00F02C3F3420313432268D3605F
:102500003DE0FEF70DFE6268530803EB4003B3FBAA
:10251000F2F39BB20020E5E76268530803F1F4731D
:1025200003F59043B3FBF2F39BB20020DAE7FEF72A
:10253000BBF96268530803EB4003B3FBF2F39BB2B1
:102540000020CFE76268530803F58033B3FBF2F352
:102550009BB20020C6E701200023C3E7FEF7CEFDB3
:10256000636800EB5302B2FBF3F292B20020A2F1D7
:1025700010014FF6EF7399423BD82368DA600022CE
:1025800022666266BDE8F088FEF7CAFD636800EB6C
:102590005302B2FBF3F292B20020E8E763685A08F4
:1025A00002F5740202F51052B2FBF3F292B200206F
:1025B000DDE7FEF779F9636800EB5302B2FBF3F253
:1025C00092B20020D3E763685A0802F50042B2FBDA
:1025D000F3F292B20020CAE701200022C7E70120EF
:1025E000CDE70120CBE70120C9E70120C7E70120A3
:1025F000C5E70120C3E700BF436A13F0010F06D00F
:102600000268536823F40033816A0B435360436AC2
:1026100013F0020F06D00268536823F48033C16AB6
:102620000B435360436A13F0040F06D002685368EB
:1026300023F48023016B0B435360436A13F0080FAC
:1026400006D00268536823F40043416B0B43536088
:10265000436A13F0100F06D00268936823F4805386
:10266000816B0B439360436A13F0200F06D002681E
:10267000936823F40053C16B0B439360436A13F0D8
:10268000400F0AD00268536823F48013016C0B4397
:102690005360036CB3F5801F0BD0436A13F0800FB7
:1026A00006D00268536823F40023816C0B43536007
:1026B00070470268536823F4C003416C0B435360B6
:1026C000EBE72DE9F04105460F4616469846069C75
:1026D0002B68DB6937EA03030CBF01230023B342F5
:1026E0001CD1B4F1FF3FF3D0FDF71CFFA0EB0800B5
:1026F000A04201D8002CEBD12A68136823F4D073D0
:1027000013602A68936823F00103936020236B67AA
:10271000AB67002385F87030032000E00020BDE89F
:10272000F08130B583B004460023C367FDF7FAFE9D
:10273000054623681B6813F0080F0CD123681B683B
:1027400013F0040F15D120236367A367002084F8DA
:10275000700003B030BD6FF07E430093034600224B
:102760004FF400112046FFF7ACFF0028E6D003200D
:10277000EFE76FF07E4300932B4600224FF4800179
:102780002046FFF79EFF0028DDD00320E1E768B375
:1027900010B50446436F03B32423636722681368AC
:1027A00023F0010313602046FFF734FD012813D006
:1027B000636ABBB92268536823F49043536022686C
:1027C000936823F02A0393602268136843F001039F
:1027D00013602046FFF7A5FF10BD80F8703002F0AF
:1027E00059F8D9E72046FFF707FFE3E701207047D4
:1027F000EFF305839BB9EFF310839BB90C4B1B6878
:10280000022B05D08BB90A4B01221A6000207047B9
:10281000EFF31182002AF5D06FF0050070476FF0DA
:10282000050070476FF0050070474FF0FF307047AC
:102830003400002008B5EFF30583B3B9EFF310833C
:10284000B3B90E4B1B68022B08D0012B13D10B4BD5
:1028500002221A6000F02CFE002008BDEFF3118266
:10286000002AF2D06FF00500F7E76FF00500F4E7FB
:102870006FF00500F1E74FF0FF30EEE73400002085
:10288000F0B587B000240494EFF305844CBBEFF35C
:10289000108333BB334B1B68022B25D008B30023B6
:1028A0008DF8173092B316681EB3946904B91824D2
:1028B000631E372B52D8536813F0010F50D155695E
:1028C000D5B14FEA950C93682BB1D7685B2F02D92D
:1028D000176907B10DBB93B14FF0FF35012D23D020
:1028E00075B3049807B0F0BDEFF31183002BF8D156
:1028F000D4E70DF11706D8E74FF0800CE3E7D36873
:102900006BB9136973B14FF0FF35E7E70025182461
:102910004FF0800C0DF11706E0E70125DEE74FF0E0
:10292000FF35DBE70025D9E713699268029201932E
:1029300000940B466246314600F04EFD0490D0E70D
:1029400004AA019200940B461FFA8CF2314600F063
:102950007CFD0128C5D000230493C2E70020C1E715
:102960000020BFE73400002008B5EFF30583A3B9CA
:10297000EFF31083A3B90C4B1B68022B02D040B9B4
:10298000002008BDEFF31183002BF8D06FF0050095
:10299000F7E700F0E1FE0020F3E76FF00500F0E755
:1029A0006FF00500EDE700BF3400002010B4054BC8
:1029B0001C1D046060330B60802313605DF8044BC2
:1029C000704700BF3400002010B4064B03F51874A4
:1029D000046003F52F730B604FF4807313605DF890
:1029E000044B70473400002000F1080343604FF0AF
:1029F000FF328260C36003610023036070470023DD
:102A00000361704743684B609A688A609A685160B6
:102A100099600861036801330360704730B40D6842
:102A2000B5F1FF3F02D000F1080202E0026904E0C4
:102A30001A4653681C68AC42FAD953684B609960D7
:102A40008A605160086103680133036030BC7047DD
:102A500003694268816891608268416851605A6880
:102A6000824206D0002202611A68013A1A60186890
:102A7000704782685A60F5E710B5044601F082FAA3
:102A8000A26BE36B9A4204D0002401F09DFA204629
:102A900010BD0124F9E710B5044601F073FAA36BE9
:102AA00023B1002401F090FA204610BD0124F9E77B
:102AB00070B504461646856B026C5AB903681BB1A3
:102AC00000200135A56370BD406800F093FF00232E
:102AD0006360F6E76EB9806802F08CF9226CA36837
:102AE0001344A3606268934219D32368A360002053
:102AF000E7E7C06802F07EF9226C5242E3681344B3
:102B0000E36021688B4202D263681A44E260022EBD
:102B100001D00020D5E725B1013D0020D1E70020FC
:102B2000CFE70020CDE7026C72B110B5C368134443
:102B3000C3604468A34201D30368C3600C46C16804
:102B4000204602F057F910BD704738B5054601F030
:102B500019FA95F8454064B203E000F033FF013CF8
:102B600064B2002C08DD6B6A33B105F1240000F07B
:102B70009BFE0028F3D0F0E7FF2385F8453001F0F5
:102B800023FA01F0FFF995F8444064B203E000F045
:102B900019FF013C64B2002C08DD2B6933B105F14B
:102BA000100000F081FE0028F3D0F0E7FF2385F845
:102BB000443001F009FA38BD38B540B94FF0500340
:102BC00083F31188BFF36F8FBFF34F8FFEE7044687
:102BD0000D4601F0D7F92168E26B236C03FB02106C
:102BE00060600020A063A160013A02FB0313E36070
:102BF000FF2384F8443084F84530A5B923691BB914
:102C000001F0E2F9012038BD04F1100000F04CFEA3
:102C10000028F5D0084B4FF080521A60BFF34F8F59
:102C2000BFF36F8FECE704F11000FFF7DDFE04F156
:102C30002400FFF7D9FEE3E704ED00E038B51D46B8
:102C4000049C0B4649B12260E063236401212046C5
:102C5000FFF7B2FF84F84C5038BD2460F4E740B968
:102C60004FF0500383F31188BFF36F8FBFF34F8F83
:102C7000FEE710B584B0044653B192B189B94FF064
:102C8000500383F31188BFF36F8FBFF34F8FFEE7BD
:102C90004FF0500383F31188BFF36F8FBFF34F8F53
:102CA000FEE74AB941B14FF0500383F31188BFF3F7
:102CB0006F8FBFF34F8FFEE750200390039850288B
:102CC00008D04FF0500383F31188BFF36F8FBFF329
:102CD0004F8FFEE720461C46012384F846300094BF
:102CE0009DF81830FFF7AAFF204604B010BD000081
:102CF000F0B585B0019260B1044699B9026C8AB111
:102D00004FF0500383F31188BFF36F8FBFF34F8FE2
:102D1000FEE74FF0500383F31188BFF36F8FBFF3CB
:102D20004F8FFEE7022B0BD1E26B012A08D04FF048
:102D3000500383F31188BFF36F8FBFF34F8FFEE70C
:102D40001E460F4600F046FE50B9019B53B14FF0AE
:102D5000500383F31188BFF36F8FBFF34F8FFEE7EC
:102D600000253AE0002538E0324639462046FFF794
:102D70009FFE636A4BB9A8B13B4B4FF080521A607B
:102D8000BFF34F8FBFF36F8F0CE004F1240000F00E
:102D90008BFD38B1344B4FF080521A60BFF34F8F28
:102DA000BFF36F8F01F010F9012005B0F0BD01F005
:102DB0000BF90020F9E702A800F0BAFD012519E09F
:102DC000002384F8443021E0002384F8453023E0D8
:102DD0002046FFF7BAFE00F047FC01F0D3F8A26BE3
:102DE000E36B9A42C0D3022EBED0019B002BDED0F3
:102DF000002DE0D001F0E8F800F0A0FB01F0C2F8EF
:102E000094F844305BB2B3F1FF3FD9D094F8453029
:102E10005BB2B3F1FF3FD7D001F0D6F801A902A809
:102E200000F090FDC8B92046FFF726FE0028CFD05D
:102E3000019904F1100000F0FFFC2046FFF785FE29
:102E400000F012FC0028C8D1074B4FF080521A60E6
:102E5000BFF34F8FBFF36F8FBFE72046FFF775FEBD
:102E600000F002FC0020A0E704ED00E02DE9F843AB
:102E700060B1044699B9006C88B14FF0500383F3F8
:102E80001188BFF36F8FBFF34F8FFEE74FF05003F2
:102E900083F31188BFF36F8FBFF34F8FFEE7022BD1
:102EA0000BD1E06B012808D04FF0500383F3118859
:102EB000BFF36F8FBFF34F8FFEE71F4690468946E3
:102EC00001F086F9EFF311864FF0500383F3118878
:102ED000BFF36F8FBFF34F8FA26BE36B9A4203D3A5
:102EE000022F01D000200FE094F845506DB23A4611
:102EF00049462046FFF7DCFDB5F1FF3F08D06B1CCB
:102F00005BB284F84530012086F31188BDE8F88370
:102F1000636A5BB104F1240000F0C6FC40B1B8F173
:102F2000000F07D00120C8F80000EDE70120EBE713
:102F30000120E9E70120E7E7F0B585B0019260B133
:102F4000044699B9036C8BB14FF0500383F3118899
:102F5000BFF36F8FBFF34F8FFEE74FF0500383F344
:102F60001188BFF36F8FBFF34F8FFEE70F4600F05E
:102F700031FD50B9019B53B14FF0500383F31188D9
:102F8000BFF36F8FBFF34F8FFEE700263EE00026B2
:102F90003CE039462046FFF7C6FD013DA5632369A5
:102FA00023B901F011F8012005B0F0BD04F11000C3
:102FB00000F07AFC0028F4D0344B4FF080521A60B5
:102FC000BFF34F8FBFF36F8FEBE700F0FDFF0020E3
:102FD000EAE702A800F0ACFC012621E0002384F817
:102FE000443029E0002384F845302BE02046FFF7E9
:102FF000ACFD00F039FB09E02046FFF7A6FD00F02C
:1030000033FB2046FFF747FD00283DD100F0BAFF13
:10301000A56B002DBDD1019B002BD6D0002ED8D0A2
:1030200000F0D2FF00F08AFA00F0ACFF94F84430D0
:103030005BB2B3F1FF3FD1D094F845305BB2B3F14E
:10304000FF3FCFD000F0C0FF01A902A800F07AFC3A
:103050000028D1D12046FFF71EFD0028C6D00199D7
:1030600004F1240000F0E8FB2046FFF76EFD00F0BD
:10307000FBFA0028CAD1054B4FF080521A60BFF30B
:103080004F8FBFF36F8FC1E700208DE704ED00E0A5
:103090000023072B0CD8074A52F833200AB101331A
:1030A000F7E7044A42F8331002EBC3035860704755
:1030B000704700BFFC18002070B504460D46164648
:1030C00000F060FF94F844305BB2B3F1FF3F0DD0E5
:1030D00094F845305BB2B3F1FF3F0BD000F074FFC2
:1030E000A36B5BB12046FFF730FD70BD002384F871
:1030F0004430EDE7002384F84530EFE732462946B7
:1031000004F1240000F0B2FBECE70000074B9B6ADF
:103110001B6833B1054B9A6AD268D2685268DA628A
:103120007047024B4FF0FF32DA627047F006002022
:103130002DE9F04781460D4617469A46089EDDF870
:1031400024800A9C9200A521206B01F05EFE236B77
:1031500007F18042013A03EB820727F007070023BB
:103160000F2B07D8E95CE21882F83410EA5C0AB148
:103170000133F5E7002384F84330372E00D9372692
:10318000E662E66400252565201DFFF738FC04F1A2
:103190001800FFF734FC2461C6F13806A6616462AA
:1031A000656584F8585052464946384600F0BEFEE0
:1031B0002060B8F1000F01D0C8F80040BDE8F087EA
:1031C00070B5002407E004EB840293001048184413
:1031D000FFF70AFC0134372CF5D90E4C04F5926642
:1031E0003046FFF701FC04F2A4452846FFF7FCFB3C
:1031F00004F11400FFF7F8FB04F59760FFF7F4FB08
:103200002046FFF7F1FBA662C4F8CC5470BD00BFA6
:1032100020070020F006002038B5044600F0B2FE7A
:10322000274BD3F8D0240132C3F8D024D3F8D434B8
:1032300073B1234BD3F8D8348BB9214BD3F8D434A2
:10324000DA6AE36A9A420AD81D4BC3F8D44406E00E
:103250001B4BC3F8D444D3F8D034012B2CD0184ADC
:10326000D2F8DC340133C2F8DC346364E36AD2F8A8
:10327000E024934202D9124AC2F8E034104D05F11D
:10328000300003EB83039A00211D1044FFF7BAFBC3
:1032900000F09AFED5F8D8346BB1D5F8D434DA6A98
:1032A000E36A9A4207D2074B4FF080521A60BFF38D
:1032B0004F8FBFF36F8F38BDFFF782FFCFE700BF9F
:1032C000F006002004ED00E010B5044690F85930F7
:1032D00033B9006B01F086F8204601F083F810BD89
:1032E000012B0AD0022BFAD04FF0500383F3118840
:1032F000BFF36F8FBFF34F8FFEE701F073F8EEE778
:1033000038B517E000F03EFE0D4CD4F8C434DD684B
:10331000281DFFF79DFBD4F8D034013BC4F8D0340E
:10332000D4F8E434013BC4F8E43400F04DFE284600
:10333000FFF7CAFF024BD3F8E434002BE2D138BDCB
:10334000F006002008B5FFF7DBFF064B1B6B012BD7
:10335000F9D9054B4FF080521A60BFF34F8FBFF37E
:103360006F8FF0E7F006002004ED00E070B5044632
:103370000E46184BD3F8E854D3F8D4040430FFF7C2
:1033800067FBB4F1FF3F12D02C44124BD3F8D43476
:103390005C60A54214D80F4DA86AD5F8D414043146
:1033A000FFF73CFBEB6AA34212D9EC6210E0002E5F
:1033B000EAD00848D0F8D4140431FFF723FB07E023
:1033C000044BD3F8CC04D3F8D4140431FFF726FB14
:1033D00070BD00BFF006002070B586B00B9D0C9C40
:1033E00045B94FF0500383F31188BFF36F8FBFF3DC
:1033F0004F8FFEE744B94FF0500383F31188BFF3BA
:103400006F8FBFF34F8FFEE75C260496049E5C2E01
:1034100008D04FF0500383F31188BFF36F8FBFF3D1
:103420004F8FFEE72563022584F859500025039548
:10343000029405AD01950A9D0095FFF779FE20469F
:10344000FFF7EAFE059806B070BD2DE9F04385B0A0
:103450000746884615469946900000F03DFF08B3A0
:1034600006465C2000F038FF0446B8B10663E4B1BC
:10347000002384F85930039302940D9B01930C9B15
:1034800000934B462A4641463846FFF751FE2046F8
:10349000FFF7C2FE012005B0BDE8F083304600F022
:1034A000A1FFE4E74FF0FF30F5E74FF0FF30F2E720
:1034B00010B588B000240594069407AA06A905A8AB
:1034C000FFF774FA059B0293069B01930094234631
:1034D000079A17491748FFF77FFF40B100F032FB0A
:1034E000012806D0B0F1FF3F18D008B010BD002071
:1034F000F6E74FF0500383F31188BFF36F8FBFF3EC
:103500004F8F0D4B4FF0FF32DA620122C3F8D824FF
:103510000022C3F8E82400F0D7FDE6E74FF050039F
:1035200083F31188BFF36F8FBFF34F8FFEE700BFA8
:10353000804E000845330008F0060020034AD2F808
:10354000EC340133C2F8EC34704700BFF0060020C1
:10355000014BD3F8E8047047F00600202DE9F04154
:10356000404BD3F8EC34002B6DD13E4BD3F8E854EC
:103570000135C3F8E854CDB99B6A1B6843B14FF0DD
:10358000500383F31188BFF36F8FBFF34F8FFEE7B4
:10359000344B9A6AD3F8CC149962C3F8CC24D3F88C
:1035A000F0240132C3F8F024FFF7B0FD2D4BDB6AA5
:1035B000AB423ED900242B4AD2F8D434DB6A03EB69
:1035C000830399000A44136B012B43D9012441E082
:1035D0000124244B9B6A1B686BB3224B9B6ADB68FC
:1035E000DE6873689D422BD306F104084046FFF75E
:1035F0002FFAB36A1BB106F11800FFF729FAF36A34
:10360000184AD2F8E024934202D9164AC2F8E034AC
:10361000144F07F1300003EB83039A004146104436
:10362000FFF7F0F9F26AD7F8D434DB6A9A42CFD2C6
:10363000CFE70024CDE70B4B4FF0FF32DA62BAE759
:10364000084AD362B7E7074AD2F8F4340133C2F824
:10365000F4340024034BD3F8F83403B1012420469A
:10366000BDE8F081F0060020394BD3F8EC3443B9C3
:103670004FF0500383F31188BFF36F8FBFF34F8F69
:10368000FEE770B500F07EFC314BD3F8EC24013A34
:10369000C3F8EC24D3F8EC34002B54D12C4BD3F8E2
:1036A000D03423B9002400F08FFC204670BD0024E4
:1036B000274B5B692BB3264D2B6ADC6804F118009D
:1036C000FFF7C6F9261D3046FFF7C2F9E36AD5F8C1
:1036D000E024934201D9C5F8E0341D4D05F13000D6
:1036E00003EB83039A0031461044FFF78BF9E26A3B
:1036F000D5F8D434DB6A9A42DAD30122C5F8F8242B
:10370000D6E70CB1FFF702FD114BD3F8F44464B1D6
:10371000FFF724FF18B10E4B0122C3F8F824013C37
:10372000F6D10B4B0022C3F8F424094BD3F8F8343C
:103730005BB1084B4FF080521A60BFF34F8FBFF35D
:103740006F8F0124AFE70024ADE70024ABE700BF93
:10375000F006002004ED00E010B5B0B104460F4BB8
:10376000D3F8EC3443B14FF0500383F31188BFF327
:103770006F8FBFF34F8FFEE7FFF7E0FE002120467B
:10378000FFF7F4FDFFF770FF38B9054B4FF080529B
:103790001A60BFF34F8FBFF36F8F10BDF00600208C
:1037A00004ED00E0234BD3F8EC3423B1214B01228C
:1037B000C3F8F82470471F4B0022C3F8F824D3F84D
:1037C000E03403EB830291001A4A0A44126B5AB99F
:1037D0000BB1013BF5E74FF0500383F31188BFF3C2
:1037E0006F8FBFF34F8FFEE710B4124A9900CC18C9
:1037F000A0001044446B646844633032194488006C
:103800000830024494420DD00A4903EB8300820041
:103810000A44526BD268C1F8D424C1F8E0345DF890
:10382000044B704761680348142202FB0302516392
:10383000EAE700BFF006002040B94FF0500383F3E1
:103840001188BFF36F8FBFF34F8FFEE710B50C46A3
:10385000054BD3F8D4141831FFF7E0F801212046C6
:10386000FFF784FD10BD00BFF006002038B540B959
:103870004FF0500383F31188BFF36F8FBFF34F8F67
:10388000FEE70C461546074AD2F8D4141831FFF764
:10389000B9F80DB14FF0FF3429462046FFF766FD19
:1038A00038BD00BFF006002038B5C368DC6844B9F5
:1038B0004FF0500383F31188BFF36F8FBFF34F8F27
:1038C000FEE704F118052846FFF7C2F8154BD3F8B8
:1038D000EC3403BB251D2846FFF7BAF8E36A114A0A
:1038E000D2F8E024934202D90E4AC2F8E03403EB46
:1038F00083039A0029460C481044FFF783F8E26AD4
:10390000084BD3F8D434DB6A9A4209D90120054B1D
:10391000C3F8F80438BD29460448FFF773F8EEE70A
:103920000020F7E7F0060020200700200407002011
:10393000034BD3F8F0240260D3F8E83443607047B7
:10394000F0060020F8B550B1054689B94FF0500394
:1039500083F31188BFF36F8FBFF34F8FFEE74FF0F4
:10396000500383F31188BFF36F8FBFF34F8FFEE7D0
:103970000C4600F007FB124BD3F8E81468680A1AEB
:103980002368B3F1FF3F17D02F680D4ED6F8F064CF
:10399000B74201D0884211D9934203D80023236053
:1039A000012405E09B1A23602846FFF7C1FF00248D
:1039B00000F00AFB2046F8BD0024F9E70124F7E7F0
:1039C000F0060020024B0122C3F8F824704700BF24
:1039D000F0060020064BD3F8D8343BB1044BD3F8A3
:1039E000EC340BB100207047022070470120704773
:1039F000F006002000283BD038B504461F4AD2F814
:103A0000D424824208D04FF0500383F31188BFF3CF
:103A10006F8FBFF34F8FFEE7026D42B94FF0500337
:103A200083F31188BFF36F8FBFF34F8FFEE7013A27
:103A30000265C06AE16C88421CD0EAB9251D28469F
:103A4000FFF706F8E36CE362C3F13802A2610B4AA8
:103A5000D2F8E024934202D9084AC2F8E034294659
:103A6000074A142000FB0320FEF7CCFF012038BDDD
:103A7000002070470020FAE70020F8E7F006002059
:103A800020070020064B1A681368B3FA83F35B091A
:103A9000036013B9D368186870470020704700BFEF
:103AA000EC0B002008B54160006191420CD8D21A9D
:103AB00083699A4201D3012010E0011D094B586827
:103AC000FEF7ACFF002009E09A4201D2994206D2EB
:103AD000011D044B1868FEF7A1FF002008BD01205E
:103AE000FCE700BFEC0B002070B582B000F04AFA92
:103AF000124B9B681BB100F067FA02B070BD0F4C0F
:103B000004F10C063046FEF76FFF04F1200528464D
:103B1000FEF76AFF266065600023009304F134031A
:103B200004F1840210210A20FFF799F8A060002810
:103B3000E1D00349FFF7ACFADDE700BFEC0B002052
:103B4000884E000810B588B0FFF7CEFF134B9B6876
:103B5000D3B100240594069407AA06A905A8FEF788
:103B600033FF059B0293069B019302230093234698
:103B7000079A0B490B48FFF72FFC084BC3F82401A9
:103B800010B1012008B010BD4FF0500383F311882D
:103B9000BFF36F8FBFF34F8FFEE700BFEC0B00202A
:103BA000904E0008993E0008C8B130B585B0154662
:103BB0000446174A906840B31A4600910195029452
:103BC00005291DDCFFF706FF022811D000231A4645
:103BD00069460F488068FFF78BF805B030BD4FF09D
:103BE000500383F31188BFF36F8FBFF34F8FFEE74E
:103BF0000023089A694606488068FFF779F8ECE7E1
:103C000000236946FFF732F9E7E70020E5E700BF48
:103C1000EC0B0020204B1B681A68002A37D070B5C7
:103C200082B0DB681E68DC68251D2846FEF710FFA1
:103C3000636A20469847E369012B0AD0164B1B683C
:103C40001A68002AEDD1144A51681160536002B01D
:103C500070BDA36933449E4207D263602461294644
:103C60000D4B1868FEF7DAFEE8E7002100910B46DD
:103C700032462046FFF798FF0028DFD14FF050036F
:103C800083F31188BFF36F8FBFF34F8FFEE7024AB4
:103C90005168116053607047EC0B002038B5054641
:103CA000FFF756FC0446084BD3F82831834206D868
:103CB00000232B60044BC3F82841204638BDFFF792
:103CC000A9FF01232B60F5E7EC0B002070B582B053
:103CD00005460E46144B1B68DB68DC68201DFEF7AA
:103CE000B7FEE369012B04D0636A2046984702B00F
:103CF00070BDA1692B46324629442046FFF7D2FE0B
:103D00000028F1D0002100910B462A462046FFF7FB
:103D10004BFF0028E8D14FF0500383F31188BFF325
:103D20006F8FBFF34F8FFEE7EC0B002070B582B0B2
:103D300006460C46FFF702FC01A8FFF7AFFF019B08
:103D40001BBB05460CB9B04218D22CB1114B5B68B5
:103D50001C68B4FA84F464092246711B0D4B986800
:103D6000FFF7AAF9FFF780FC88B90B4B4FF08052A0
:103D70001A60BFF34F8FBFF36F8F08E0FFF774FC3B
:103D800029463046FFF7A2FF01E0FFF76DFC02B0C5
:103D900070BD00BFEC0B002004ED00E030B589B031
:103DA00002E0049B002B0FDA002204A9394B98682B
:103DB000FFF7C2F800286AD0049B002BF1DA0799BC
:103DC0000698059B9847ECE7069C636913B1201D94
:103DD000FEF73EFE03A8FFF761FF049B092BE3D823
:103DE00001A252F823F000BF113E0008113E000866
:103DF000113E0008A93D0008593E00087F3E00081A
:103E0000113E0008113E0008A93D0008593E000877
:103E10000599A5690B46024629442046FFF742FE54
:103E20000028C1D0636A20469847E369012BBBD1C3
:103E3000A269002100910B46059802442046FFF735
:103E4000B3FE0028B0D14FF0500383F31188BFF3C5
:103E50006F8FBFF34F8FFEE70599A16131B1034624
:103E6000024601442046FFF71DFE9DE74FF0500338
:103E700083F31188BFF36F8FBFF34F8FFEE794F882
:103E80002C30002B90D1204600F0ACFA8CE709B022
:103E900030BD00BFEC0B002000B583B001A8FFF7D8
:103EA000F1FD0199FFF742FFFFF778FFF6E7000009
:103EB00082B0002301930D4B1B68B3F1FF3F08D084
:103EC0004FF0500383F31188BFF36F8FBFF34F8F11
:103ED000FEE74FF0500383F31188BFF36F8FBFF3FA
:103EE0004F8F019B002BFCD002B0704708000020D0
:103EF00008480068006880F308884FF0000080F3ED
:103F0000148862B661B6BFF34F8FBFF36F8F00DFC7
:103F100000BF000008ED00E0DFF80C00016841F48C
:103F2000700101607047000088ED00E04FF0807381
:103F300040F8043C21F0010140F8081C054B40F812
:103F40000C3C40F8202C6FF0020340F8243C44382D
:103F5000704700BFB13E00080000000000000000F4
:103F6000074B19680868B0E8F04F80F30988BFF381
:103F70006F8F4FF0000080F311887047AFF300801F
:103F8000C40B00204FF0500383F31188BFF36F8FF1
:103F9000BFF34F8F0A4A136801331360012B00D01F
:103FA0007047084B1B6813F0FF0FF9D04FF0500318
:103FB00083F31188BFF36F8FBFF34F8FFEE700BF0E
:103FC0000800002004ED00E0094B1B6843B94FF0E6
:103FD000500383F31188BFF36F8FBFF34F8FFEE75A
:103FE000013B034A13600BB983F31188704700BF8C
:103FF0000800002000000000000000000000000099
:10400000EFF30980BFF36F8F154B1A681EF0100F86
:1040100008BF20ED108A20E9F04F10602DE909005B
:104020004FF0500080F31188BFF34F8FBFF36F8FB5
:10403000FFF7B8FB4FF0000080F3118809BC196846
:104040000868B0E8F04F1EF0100F08BFB0EC108AFF
:1040500080F30988BFF36F8F704700BFAFF3008014
:10406000C40B002008B54FF0500383F31188BFF351
:104070006F8FBFF34F8FFFF771FA18B1034B4FF0FB
:1040800080521A60002383F3118808BD04ED00E01C
:10409000084A0023136008490B60084B1B68084955
:1040A000A1FB03139B09013B06490B600723136027
:1040B000704700BF10E000E018E000E014000020AE
:1040C000D34D621014E000E0394B1A68394B9A4224
:1040D0000DD0374B1A68384B9A4211D14FF050032C
:1040E00083F31188BFF36F8FBFF34F8FFEE74FF05D
:1040F000500383F31188BFF36F8FBFF34F8FFEE739
:1041000010B582B02D4B1A78D2B20192FF221A70EC
:104110001B78DBB28DF803309DF8033003F05003B9
:10412000274A13700723536009E0254A5368013B6F
:1041300053609DF803305B00DBB28DF803309DF8CF
:10414000033013F0800FF0D11D4B5B68032B08D0B8
:104150004FF0500383F31188BFF36F8FBFF34F8F7E
:10416000FEE71B0203F4E063154A5360019BDBB2D8
:10417000124A1370134B1A6842F470021A601A68DC
:1041800042F070421A60FFF783FF00240E4B1C6060
:10419000FFF7C2FE0D4A136843F040431360FFF778
:1041A000A7FEFFF7FFFAFFF783FE204602B010BD1F
:1041B00000ED00E071C20F4170C20F4100E400E069
:1041C000180D002020ED00E00800002034EF00E092
:1041D000EFF305830F2B0FD9104A9B5CDBB2104A1B
:1041E00012789A4208D94FF0500383F31188BFF335
:1041F0006F8FBFF34F8FFEE70A4B1B6803F4E0633A
:10420000074A5268934208D94FF0500383F311884C
:10421000BFF36F8FBFF34F8FFEE77047F0E300E00F
:10422000180D00200CED00E0144A12F0070F21D009
:10423000D11D21F00701C1F53B63083313440A4641
:104240000E49C1F8B82B0020C1F8BC0B1344083B41
:1042500023F00703C1F8C03B58601860981A5060FB
:104260001360C1F8C40BC1F8C80B4FF00043C1F88C
:10427000CC3B704740F6B833E2E700BF200D00208A
:1042800010B4134B1A6882421CD359685C188442DC
:1042900003D1406801445960184641684418A2425D
:1042A00014D10C4CD4F8C04BA2420DD0526811442A
:1042B00041601A6812680260984200D018605DF888
:1042C000044B70471346DDE70460F5E70260F3E74F
:1042D000D8180020200D002070B50446FFF72EF9F5
:1042E0003F4BD3F8C03BC3B13D4BD3F8CC3B1C4252
:1042F0006CD1ACB1083414F0070F11D024F00704CE
:10430000083404F007035BB14FF0500383F31188C6
:10431000BFF36F8FBFF34F8FFEE7FFF785FFE3E734
:10432000002C55D02E4BD3F8C83BA34252D32C4B74
:10433000D3F8B85B03F6B83301E02B4615466A683C
:10434000A24202D22A68002AF7D1254AD2F8C02B0D
:10435000AA4241D01E6808362A681A606B681B1B87
:10436000102B10D9281910F0070F08D04FF0500368
:1043700083F31188BFF36F8FBFF34F8FFEE7436066
:104380006C60FFF77DFF6968154AD2F8C83B5B1A7D
:10439000C2F8C83BD2F8C42B934202D2104AC2F8EA
:1043A000C43B0F4BD3F8CC3B0B436B6000232B601B
:1043B000FFF75AF916F0070F10D04FF0500383F3B0
:1043C0001188BFF36F8FBFF34F8FFEE70026EFE733
:1043D0000026EDE70026EBE70026E9E7304670BD52
:1043E000200D002098B338B50446A0F1080550F818
:1043F000042C1749D1F8CC1B0A4208D14FF05003C6
:1044000083F31188BFF36F8FBFF34F8FFEE750F830
:10441000080C40B14FF0500383F31188BFF36F8F46
:10442000BFF34F8FFEE722EA010244F8042CFFF7A6
:1044300085F854F8041C064AD2F8C83B0B44C2F86D
:10444000C83B2846FFF71CFFFFF70EF938BD704741
:10445000200D002008B500F0AFFB0D4C0522002117
:10446000204600F031FC0120FEF77EFA05230022F1
:104470001146084800F0CCFB0120FEF775FA052232
:104480000021204600F020FC0120FEF76DFAE4E751
:10449000F01800200C00002000B58BB0FEF7A8F942
:1044A0002022002102A800F0B0FC084B01938023D9
:1044B00006931823079301AA00210548FEF7E0F9A7
:1044C000044B18600BB05DF804FB00BF984E000869
:1044D000554400083C190020F0B58BB00024059429
:1044E00006940794089409942D4BDA6C42F0040268
:1044F000DA64DA6C02F004020192019ADA6C42F09A
:104500008002DA64DA6C02F080020292029ADA6CBB
:1045100042F00102DA64DA6C02F001020392039ABB
:10452000DA6C42F00202DA64DB6C03F002030493FB
:10453000049B1C4D22464FF4C8712846FCF716F91F
:10454000194F22464AF201013846FCF70FF94FF4A1
:1045500000530593154B0693079405A92846FCF7CD
:104560003BF84FF4C8730593012606960794089408
:1045700005A92846FCF730F84AF201030593069690
:104580000794089405A93846FCF726F840230593BC
:104590000694079605A92846FCF71EF80BB0F0BD57
:1045A00000100240000800480004004800002110EC
:1045B00030B5B1B02422002120A800F026FC002450
:1045C0001A941B941C941D941E94682221466846DC
:1045D00000F01BFC02251F954FF4807322934023AB
:1045E000239329952A9501232B930A232C930723A0
:1045F0002D932E952F951FA8FCF7B0F90F231A9332
:1046000003231B931C941D941E9404211AA8FCF7E9
:10461000C3FC009509946846FCF768FE4FF40070EF
:10462000FCF7B2F831B030BD08B5FBF759FFFFF722
:10463000BFFFFFF751FF00F011F900F015F800F08F
:104640002DFAFFF729FFFEF7F5F8FEE708B5026837
:10465000034B9A4200D008BDFBF758FFFBE700BFB1
:10466000002C01407047000008B50F480F4B036055
:104670004FF482734360002383604FF4E062C260B2
:10468000036143614FF400728261C361036243625C
:1046900083620722C26203634363FDF7FEF800B939
:1046A00008BDFFF7DFFFFBE74019002000300140A5
:1046B00070B588B000230393049305930693079382
:1046C00002681D4B9A4201D008B070BD03F56043EB
:1046D0001A6E42F480521A661A6E02F480520092E8
:1046E000009ADA6C42F00102DA64DA6C02F001023C
:1046F0000192019ADA6C42F00202DA64DB6C03F098
:1047000002030293029B20230393022604960325AF
:1047100006950524079403A94FF09040FBF75CFF32
:10472000302303930496012305930695079403A968
:104730000248FBF751FFC7E7003001400004004882
:1047400000B583B00D4B1A6E42F001021A661A6E64
:1047500002F001020092009A9A6D42F080529A652E
:104760009B6D03F080530193019B00220F216FF09A
:104770000100FBF7EFFE03B05DF804FB0010024000
:1047800000B589B0002201461920FBF7E3FE19208D
:10479000FBF714FF144B1A6E42F400621A661B6E8C
:1047A00003F400630193019B02A903A8FCF7CAFC70
:1047B000FCF7B6FC0D4BA3FB00239B0C013B0C4804
:1047C0000C4A026040F2E732C2604360002303619A
:1047D0008360FDF703FD18B1012009B05DF804FB0B
:1047E0000348FDF7D3FBF8E70010024083DE1B43CC
:1047F000A4190020002C01407047FEE7FEE7FEE709
:10480000FEE7704708B50248FDF7DAFB08BD00BFB8
:10481000A41900200F49D1F8883043F47003C1F87F
:1048200088300D4B1A6842F001021A60002098602F
:104830001A6822F0A85222F410221A604FF4805213
:10484000DA601A6822F480221A6098614FF00063DF
:104850008B60704700ED00E00010024008B50B4887
:104860000B4B03604FF4E133436000238360C3606C
:1048700003610C2242618361C36103624362FDF7FD
:1048800086FF00B908BDFFF7EDFEFBE7E419002045
:104890000044004000B589B00023039304930593BE
:1048A000069307930268144B9A4202D009B05DF850
:1048B00004FB03F5E6339A6D42F400329A659A6D73
:1048C00002F400320192019ADA6C42F00102DA64D9
:1048D000DB6C03F001030293029B0C23039302237E
:1048E0000493032306930723079303A94FF09040F3
:1048F000FBF772FEDAE700BF0044004000B587B066
:104900008DF80F006423009301230DF117020DF1C0
:104910000F010448FDF707F99DF8170007B05DF88F
:1049200004FB00BF40190020F8B50F4D0022012103
:104930002846FBF71BFF9F20FFF7E0FFA520FFF7AE
:10494000DDFF0746A520FFF7D9FF0446A520FFF7A6
:10495000D5FF0646012211462846FBF707FF200235
:1049600040EA07403043F8BD0004004810B500227B
:1049700001211048FBF7FAFE4B20FFF7BFFF002490
:1049800004E0A520FFF7BAFF0134E4B2032CF8D904
:10499000002407E0A520FFF7B1FF074B2344587020
:1049A0000134E4B2072CF5D9012211460148FBF786
:1049B000DDFE10BD00040048641A002010B5094C4B
:1049C000002201212046FBF7D1FE0620FFF796FFCB
:1049D000012211462046FBF7C9FE0120FDF7C4FF66
:1049E00010BD00BF0004004810B50446002201219C
:1049F0001648FBF7BBFE012C12D0022C1BD0152051
:104A0000FFF77CFFA520FFF779FF0446104B83F8E2
:104A10002600012211460D48FBF7A8FE204610BDD6
:104A20000520FFF76BFFA520FFF768FF0446084B42
:104A300083F82400EDE73520FFF760FFA520FFF79E
:104A40005DFF0446024B83F82500E2E700040048BE
:104A5000641A002010B50120FDF786FF0022012115
:104A60000C48FBF783FE0520FFF748FFA520FFF762
:104A700045FF094C84F824000120FDF775FF94F8E8
:104A8000243013F0010FF1D1012211460148FBF748
:104A90006DFE10BD00040048641A002010B5444BA0
:104AA000012283F8272002E00120FDF75DFFFBF7DC
:104AB00039FD6328F8D9012211463E48FBF756FE1E
:104AC0006420FDF751FFFFF72FFF80B2A0F5804073
:104AD0001138092866D8DFE800F05F59534D474187
:104AE0003B342D05324B0A221A704FF48062DA6192
:104AF0002F4C4FF4807363814FF480532361E3693B
:104B00001A0162611B041A0AE2604FF48032A2614A
:104B10009B0A2362FFF72AFF0120FFF765FF0220AF
:104B2000FFF762FF0320FFF75FFF002384F82730C1
:104B3000012010BD1E4B09221A704FF40072DA6179
:104B4000D6E71B4B08221A704FF48072DA61CFE768
:104B5000174B07221A708022DA61C9E7144B06222C
:104B60001A704022DA61C3E7114B05221A70202225
:104B7000DA61BDE70E4B04221A701022DA61B7E742
:104B80000B4B03221A700822DA61B1E7084B0222AC
:104B90001A700422DA61ABE7054B01221A70022277
:104BA000DA61A5E70020024B83F82700C1E700BFC8
:104BB000641A00200004004870B502E00120FDF7EF
:104BC000D3FE114B93F82730012BF7D00E4D012463
:104BD00085F82740FFF7F2FE0C4E002221463046B2
:104BE000FBF7C4FDC720FFF789FE22462146304669
:104BF000FBF7BCFDFFF72EFF0A20FDF7B5FE0023F3
:104C000085F8273070BD00BF641A002000040048FA
:104C10002DE9F0410746884616461D4602E0012070
:104C2000FDF7A2FE254B93F82730012BF7D0234B3D
:104C3000012283F82720AA195B899A4200D805B976
:104C40009D1BAA19934200D29D1BFFF703FFFFF79C
:104C5000B5FE002201211A48FBF788FD0220FFF76C
:104C60004DFE164B5C8908FB04641B78082B20D88A
:104C7000C4F30740FFF742FEC4F30720FFF73EFEF0
:104C8000E0B2FFF73BFE6423AAB239460D48FCF7B9
:104C90005CFE012211460A48FBF768FDFFF7DAFEC9
:104CA0000120FDF761FE054B002283F82720BDE8B7
:104CB000F081200EFFF722FEDAE700BF641A002021
:104CC0000004004840190020F8B506460C46174677
:104CD00002E00120FDF748FE1C4B93F82730012B22
:104CE000F7D01A4D012185F8271000221848FBF74C
:104CF0003DFD0B20FFF702FE2B78082B21D8C4F3D3
:104D00000740FFF7FBFDC4F30720FFF7F7FDE0B214
:104D1000FFF7F4FD0020FFF7F1FD4FF4FA63BAB29C
:104D200031460C48FDF766F8012211460848FBF7AA
:104D30001DFD0120FDF718FE044B002283F82720FB
:104D4000F8BD200EFFF7DAFDD9E700BF641A002096
:104D50000004004840190020DFF834D0002103E0AF
:104D60000C4B5B58435004310B480C4B42189A4291
:104D7000F6D30B4A02E0002342F8043B094B9A4267
:104D8000F9D3FFF747FD00F011F8FFF74DFCFEE700
:104D900000800220C04E0008000000201800002003
:104DA000180000208C1A0020FEE7000070B50D4EA0
:104DB0000D4CA41BA4100025A54209D10B4E0C4C90
:104DC00000F02CF8A41BA4100025A54205D170BD4D
:104DD00056F8253098470135EEE756F825309847C4
:104DE0000135F2E7B04E0008B04E0008B04E0008A2
:104DF000B44E000810B5431E0A44914200D110BDC4
:104E000011F8014B03F8014FF7E7024403469342C0
:104E100000D1704703F8011BF9E70000F8B500BFA7
:104E2000F8BC08BC9E467047F8B500BFF8BC08BC8B
:084E30009E46704700000000DF
:104E3800A0860100400D0300801A060000350C0012
:104E480040420F0080841E0000093D0000127A00D5
:104E58000024F40000366E010048E801006CDC0212
:104E68000000000000000000010203040607080912
:104E7800000000000102030449444C450000000002
:104E8800546D725100000000546D72205376630017
:104E980064656661756C745461736B000000000092
:084EA80068B3FF7F0100000068
:084EB000C5010008000000002C
:084EB800A10100080000000048
:104EC0000100000010000000AAAAAAAA010203041F
:084ED0000500000000093D008F
:0400000508004D5949
:00000001FF
